{
  "contractName": "ArtCollectible",
  "abi": [
    {
      "inputs": [],
      "stateMutability": "nonpayable",
      "type": "constructor"
    },
    {
      "anonymous": false,
      "inputs": [
        {
          "indexed": true,
          "internalType": "address",
          "name": "owner",
          "type": "address"
        },
        {
          "indexed": true,
          "internalType": "address",
          "name": "approved",
          "type": "address"
        },
        {
          "indexed": true,
          "internalType": "uint256",
          "name": "tokenId",
          "type": "uint256"
        }
      ],
      "name": "Approval",
      "type": "event"
    },
    {
      "anonymous": false,
      "inputs": [
        {
          "indexed": true,
          "internalType": "address",
          "name": "owner",
          "type": "address"
        },
        {
          "indexed": true,
          "internalType": "address",
          "name": "operator",
          "type": "address"
        },
        {
          "indexed": false,
          "internalType": "bool",
          "name": "approved",
          "type": "bool"
        }
      ],
      "name": "ApprovalForAll",
      "type": "event"
    },
    {
      "anonymous": false,
      "inputs": [
        {
          "indexed": true,
          "internalType": "address",
          "name": "previousOwner",
          "type": "address"
        },
        {
          "indexed": true,
          "internalType": "address",
          "name": "newOwner",
          "type": "address"
        }
      ],
      "name": "OwnershipTransferred",
      "type": "event"
    },
    {
      "anonymous": false,
      "inputs": [
        {
          "indexed": true,
          "internalType": "address",
          "name": "from",
          "type": "address"
        },
        {
          "indexed": true,
          "internalType": "address",
          "name": "to",
          "type": "address"
        },
        {
          "indexed": true,
          "internalType": "uint256",
          "name": "tokenId",
          "type": "uint256"
        }
      ],
      "name": "Transfer",
      "type": "event"
    },
    {
      "inputs": [
        {
          "internalType": "address",
          "name": "to",
          "type": "address"
        },
        {
          "internalType": "uint256",
          "name": "tokenId",
          "type": "uint256"
        }
      ],
      "name": "approve",
      "outputs": [],
      "stateMutability": "nonpayable",
      "type": "function"
    },
    {
      "inputs": [
        {
          "internalType": "address",
          "name": "owner",
          "type": "address"
        }
      ],
      "name": "balanceOf",
      "outputs": [
        {
          "internalType": "uint256",
          "name": "",
          "type": "uint256"
        }
      ],
      "stateMutability": "view",
      "type": "function",
      "constant": true
    },
    {
      "inputs": [
        {
          "internalType": "uint256",
          "name": "tokenId",
          "type": "uint256"
        }
      ],
      "name": "getApproved",
      "outputs": [
        {
          "internalType": "address",
          "name": "",
          "type": "address"
        }
      ],
      "stateMutability": "view",
      "type": "function",
      "constant": true
    },
    {
      "inputs": [
        {
          "internalType": "address",
          "name": "owner",
          "type": "address"
        },
        {
          "internalType": "address",
          "name": "operator",
          "type": "address"
        }
      ],
      "name": "isApprovedForAll",
      "outputs": [
        {
          "internalType": "bool",
          "name": "",
          "type": "bool"
        }
      ],
      "stateMutability": "view",
      "type": "function",
      "constant": true
    },
    {
      "inputs": [],
      "name": "name",
      "outputs": [
        {
          "internalType": "string",
          "name": "",
          "type": "string"
        }
      ],
      "stateMutability": "view",
      "type": "function",
      "constant": true
    },
    {
      "inputs": [],
      "name": "owner",
      "outputs": [
        {
          "internalType": "address",
          "name": "",
          "type": "address"
        }
      ],
      "stateMutability": "view",
      "type": "function",
      "constant": true
    },
    {
      "inputs": [
        {
          "internalType": "uint256",
          "name": "tokenId",
          "type": "uint256"
        }
      ],
      "name": "ownerOf",
      "outputs": [
        {
          "internalType": "address",
          "name": "",
          "type": "address"
        }
      ],
      "stateMutability": "view",
      "type": "function",
      "constant": true
    },
    {
      "inputs": [],
      "name": "renounceOwnership",
      "outputs": [],
      "stateMutability": "nonpayable",
      "type": "function"
    },
    {
      "inputs": [
        {
          "internalType": "address",
          "name": "from",
          "type": "address"
        },
        {
          "internalType": "address",
          "name": "to",
          "type": "address"
        },
        {
          "internalType": "uint256",
          "name": "tokenId",
          "type": "uint256"
        }
      ],
      "name": "safeTransferFrom",
      "outputs": [],
      "stateMutability": "nonpayable",
      "type": "function"
    },
    {
      "inputs": [
        {
          "internalType": "address",
          "name": "from",
          "type": "address"
        },
        {
          "internalType": "address",
          "name": "to",
          "type": "address"
        },
        {
          "internalType": "uint256",
          "name": "tokenId",
          "type": "uint256"
        },
        {
          "internalType": "bytes",
          "name": "_data",
          "type": "bytes"
        }
      ],
      "name": "safeTransferFrom",
      "outputs": [],
      "stateMutability": "nonpayable",
      "type": "function"
    },
    {
      "inputs": [
        {
          "internalType": "address",
          "name": "operator",
          "type": "address"
        },
        {
          "internalType": "bool",
          "name": "approved",
          "type": "bool"
        }
      ],
      "name": "setApprovalForAll",
      "outputs": [],
      "stateMutability": "nonpayable",
      "type": "function"
    },
    {
      "inputs": [
        {
          "internalType": "bytes4",
          "name": "interfaceId",
          "type": "bytes4"
        }
      ],
      "name": "supportsInterface",
      "outputs": [
        {
          "internalType": "bool",
          "name": "",
          "type": "bool"
        }
      ],
      "stateMutability": "view",
      "type": "function",
      "constant": true
    },
    {
      "inputs": [],
      "name": "symbol",
      "outputs": [
        {
          "internalType": "string",
          "name": "",
          "type": "string"
        }
      ],
      "stateMutability": "view",
      "type": "function",
      "constant": true
    },
    {
      "inputs": [
        {
          "internalType": "address",
          "name": "from",
          "type": "address"
        },
        {
          "internalType": "address",
          "name": "to",
          "type": "address"
        },
        {
          "internalType": "uint256",
          "name": "tokenId",
          "type": "uint256"
        }
      ],
      "name": "transferFrom",
      "outputs": [],
      "stateMutability": "nonpayable",
      "type": "function"
    },
    {
      "inputs": [
        {
          "internalType": "address",
          "name": "newOwner",
          "type": "address"
        }
      ],
      "name": "transferOwnership",
      "outputs": [],
      "stateMutability": "nonpayable",
      "type": "function"
    },
    {
      "inputs": [
        {
          "internalType": "string",
          "name": "baseURI_",
          "type": "string"
        }
      ],
      "name": "setBaseURI",
      "outputs": [],
      "stateMutability": "nonpayable",
      "type": "function"
    },
    {
      "inputs": [
        {
          "internalType": "uint256",
          "name": "tokenId",
          "type": "uint256"
        }
      ],
      "name": "tokenURI",
      "outputs": [
        {
          "internalType": "string",
          "name": "",
          "type": "string"
        }
      ],
      "stateMutability": "view",
      "type": "function",
      "constant": true
    },
    {
      "inputs": [
        {
          "internalType": "string",
          "name": "tokenURI",
          "type": "string"
        }
      ],
      "name": "claimItem",
      "outputs": [
        {
          "internalType": "uint256",
          "name": "",
          "type": "uint256"
        }
      ],
      "stateMutability": "nonpayable",
      "type": "function"
    },
    {
      "inputs": [],
      "name": "totalSupply",
      "outputs": [
        {
          "internalType": "uint256",
          "name": "",
          "type": "uint256"
        }
      ],
      "stateMutability": "view",
      "type": "function",
      "constant": true
    },
    {
      "inputs": [
        {
          "internalType": "string",
          "name": "tokenURI",
          "type": "string"
        },
        {
          "internalType": "uint256",
          "name": "tokenId",
          "type": "uint256"
        }
      ],
      "name": "updateTokenUri",
      "outputs": [],
      "stateMutability": "nonpayable",
      "type": "function"
    }
  ],
  "bytecode": "0x60806040523480156200001157600080fd5b506040518060400160405280600e81526020017f417274436f6c6c65637469626c650000000000000000000000000000000000008152506040518060400160405280600481526020017f41525443000000000000000000000000000000000000000000000000000000008152506200009e62000092620000d860201b60201c565b620000e060201b60201c565b8160019080519060200190620000b6929190620001a4565b508060029080519060200190620000cf929190620001a4565b505050620002b9565b600033905090565b60008060009054906101000a900473ffffffffffffffffffffffffffffffffffffffff169050816000806101000a81548173ffffffffffffffffffffffffffffffffffffffff021916908373ffffffffffffffffffffffffffffffffffffffff1602179055508173ffffffffffffffffffffffffffffffffffffffff168173ffffffffffffffffffffffffffffffffffffffff167f8be0079c531659141344cd1fd0a4f28419497f9722a3daafe3b4186f6b6457e060405160405180910390a35050565b828054620001b29062000254565b90600052602060002090601f016020900481019282620001d6576000855562000222565b82601f10620001f157805160ff191683800117855562000222565b8280016001018555821562000222579182015b828111156200022157825182559160200191906001019062000204565b5b50905062000231919062000235565b5090565b5b808211156200025057600081600090555060010162000236565b5090565b600060028204905060018216806200026d57607f821691505b602082108114156200028457620002836200028a565b5b50919050565b7f4e487b7100000000000000000000000000000000000000000000000000000000600052602260045260246000fd5b61315d80620002c96000396000f3fe608060405234801561001057600080fd5b506004361061012c5760003560e01c8063715018a6116100ad578063a850e8bd11610071578063a850e8bd1461031b578063b88d4fde1461034b578063c87b56dd14610367578063e985e9c514610397578063f2fde38b146103c75761012c565b8063715018a61461029d5780638da5cb5b146102a75780638fc224db146102c557806395d89b41146102e1578063a22cb465146102ff5761012c565b806323b872dd116100f457806323b872dd146101e957806342842e0e1461020557806355f804b3146102215780636352211e1461023d57806370a082311461026d5761012c565b806301ffc9a71461013157806306fdde0314610161578063081812fc1461017f578063095ea7b3146101af57806318160ddd146101cb575b600080fd5b61014b600480360381019061014691906120aa565b6103e3565b6040516101589190612584565b60405180910390f35b6101696104c5565b604051610176919061259f565b60405180910390f35b610199600480360381019061019491906121a9565b610557565b6040516101a6919061251d565b60405180910390f35b6101c960048036038101906101c4919061206a565b6105dc565b005b6101d36106f4565b6040516101e091906127e1565b60405180910390f35b61020360048036038101906101fe9190611f54565b610705565b005b61021f600480360381019061021a9190611f54565b610765565b005b61023b60048036038101906102369190612104565b610785565b005b610257600480360381019061025291906121a9565b61081b565b604051610264919061251d565b60405180910390f35b61028760048036038101906102829190611ee7565b6108cd565b60405161029491906127e1565b60405180910390f35b6102a5610985565b005b6102af610a0d565b6040516102bc919061251d565b60405180910390f35b6102df60048036038101906102da919061214d565b610a36565b005b6102e9610ade565b6040516102f6919061259f565b60405180910390f35b6103196004803603810190610314919061202a565b610b70565b005b61033560048036038101906103309190612104565b610cf1565b60405161034291906127e1565b60405180910390f35b61036560048036038101906103609190611fa7565b610d28565b005b610381600480360381019061037c91906121a9565b610d8a565b60405161038e919061259f565b60405180910390f35b6103b160048036038101906103ac9190611f14565b610efd565b6040516103be9190612584565b60405180910390f35b6103e160048036038101906103dc9190611ee7565b610f91565b005b60007f80ac58cd000000000000000000000000000000000000000000000000000000007bffffffffffffffffffffffffffffffffffffffffffffffffffffffff1916827bffffffffffffffffffffffffffffffffffffffffffffffffffffffff191614806104ae57507f5b5e139f000000000000000000000000000000000000000000000000000000007bffffffffffffffffffffffffffffffffffffffffffffffffffffffff1916827bffffffffffffffffffffffffffffffffffffffffffffffffffffffff1916145b806104be57506104bd82611089565b5b9050919050565b6060600180546104d490612a37565b80601f016020809104026020016040519081016040528092919081815260200182805461050090612a37565b801561054d5780601f106105225761010080835404028352916020019161054d565b820191906000526020600020905b81548152906001019060200180831161053057829003601f168201915b5050505050905090565b6000610562826110f3565b6105a1576040517f08c379a000000000000000000000000000000000000000000000000000000000815260040161059890612701565b60405180910390fd5b6005600083815260200190815260200160002060009054906101000a900473ffffffffffffffffffffffffffffffffffffffff169050919050565b60006105e78261081b565b90508073ffffffffffffffffffffffffffffffffffffffff168373ffffffffffffffffffffffffffffffffffffffff161415610658576040517f08c379a000000000000000000000000000000000000000000000000000000000815260040161064f906127a1565b60405180910390fd5b8073ffffffffffffffffffffffffffffffffffffffff1661067761115f565b73ffffffffffffffffffffffffffffffffffffffff1614806106a657506106a5816106a061115f565b610efd565b5b6106e5576040517f08c379a00000000000000000000000000000000000000000000000000000000081526004016106dc90612681565b60405180910390fd5b6106ef8383611167565b505050565b60006107006007611220565b905090565b61071661071061115f565b8261122e565b610755576040517f08c379a000000000000000000000000000000000000000000000000000000000815260040161074c906127c1565b60405180910390fd5b61076083838361130c565b505050565b61078083838360405180602001604052806000815250610d28565b505050565b61078d61115f565b73ffffffffffffffffffffffffffffffffffffffff166107ab610a0d565b73ffffffffffffffffffffffffffffffffffffffff1614610801576040517f08c379a00000000000000000000000000000000000000000000000000000000081526004016107f890612741565b60405180910390fd5b8060099080519060200190610817929190611cfb565b5050565b6000806003600084815260200190815260200160002060009054906101000a900473ffffffffffffffffffffffffffffffffffffffff169050600073ffffffffffffffffffffffffffffffffffffffff168173ffffffffffffffffffffffffffffffffffffffff1614156108c4576040517f08c379a00000000000000000000000000000000000000000000000000000000081526004016108bb906126c1565b60405180910390fd5b80915050919050565b60008073ffffffffffffffffffffffffffffffffffffffff168273ffffffffffffffffffffffffffffffffffffffff16141561093e576040517f08c379a0000000000000000000000000000000000000000000000000000000008152600401610935906126a1565b60405180910390fd5b600460008373ffffffffffffffffffffffffffffffffffffffff1673ffffffffffffffffffffffffffffffffffffffff168152602001908152602001600020549050919050565b61098d61115f565b73ffffffffffffffffffffffffffffffffffffffff166109ab610a0d565b73ffffffffffffffffffffffffffffffffffffffff1614610a01576040517f08c379a00000000000000000000000000000000000000000000000000000000081526004016109f890612741565b60405180910390fd5b610a0b6000611568565b565b60008060009054906101000a900473ffffffffffffffffffffffffffffffffffffffff16905090565b610a3e61115f565b73ffffffffffffffffffffffffffffffffffffffff16610a5c610a0d565b73ffffffffffffffffffffffffffffffffffffffff1614610ab2576040517f08c379a0000000000000000000000000000000000000000000000000000000008152600401610aa990612741565b60405180910390fd5b81600860008381526020019081526020016000209080519060200190610ad9929190611cfb565b505050565b606060028054610aed90612a37565b80601f0160208091040260200160405190810160405280929190818152602001828054610b1990612a37565b8015610b665780601f10610b3b57610100808354040283529160200191610b66565b820191906000526020600020905b815481529060010190602001808311610b4957829003601f168201915b5050505050905090565b610b7861115f565b73ffffffffffffffffffffffffffffffffffffffff168273ffffffffffffffffffffffffffffffffffffffff161415610be6576040517f08c379a0000000000000000000000000000000000000000000000000000000008152600401610bdd90612641565b60405180910390fd5b8060066000610bf361115f565b73ffffffffffffffffffffffffffffffffffffffff1673ffffffffffffffffffffffffffffffffffffffff16815260200190815260200160002060008473ffffffffffffffffffffffffffffffffffffffff1673ffffffffffffffffffffffffffffffffffffffff16815260200190815260200160002060006101000a81548160ff0219169083151502179055508173ffffffffffffffffffffffffffffffffffffffff16610ca061115f565b73ffffffffffffffffffffffffffffffffffffffff167f17307eab39ab6107e8899845ad3d59bd9653f200f220920489ca2b5937696c3183604051610ce59190612584565b60405180910390a35050565b6000610cfd600761162c565b6000610d096007611220565b9050610d153382611642565b610d1f8184611660565b80915050919050565b610d39610d3361115f565b8361122e565b610d78576040517f08c379a0000000000000000000000000000000000000000000000000000000008152600401610d6f906127c1565b60405180910390fd5b610d84848484846116d4565b50505050565b6060610d95826110f3565b610dd4576040517f08c379a0000000000000000000000000000000000000000000000000000000008152600401610dcb90612781565b60405180910390fd5b6000600860008481526020019081526020016000208054610df490612a37565b80601f0160208091040260200160405190810160405280929190818152602001828054610e2090612a37565b8015610e6d5780601f10610e4257610100808354040283529160200191610e6d565b820191906000526020600020905b815481529060010190602001808311610e5057829003601f168201915b505050505090506000610e7e611730565b9050600081511415610e94578192505050610ef8565b600082511115610ec9578082604051602001610eb19291906124f9565b60405160208183030381529060405292505050610ef8565b80610ed3856117c2565b604051602001610ee49291906124f9565b604051602081830303815290604052925050505b919050565b6000600660008473ffffffffffffffffffffffffffffffffffffffff1673ffffffffffffffffffffffffffffffffffffffff16815260200190815260200160002060008373ffffffffffffffffffffffffffffffffffffffff1673ffffffffffffffffffffffffffffffffffffffff16815260200190815260200160002060009054906101000a900460ff16905092915050565b610f9961115f565b73ffffffffffffffffffffffffffffffffffffffff16610fb7610a0d565b73ffffffffffffffffffffffffffffffffffffffff161461100d576040517f08c379a000000000000000000000000000000000000000000000000000000000815260040161100490612741565b60405180910390fd5b600073ffffffffffffffffffffffffffffffffffffffff168173ffffffffffffffffffffffffffffffffffffffff16141561107d576040517f08c379a0000000000000000000000000000000000000000000000000000000008152600401611074906125e1565b60405180910390fd5b61108681611568565b50565b60007f01ffc9a7000000000000000000000000000000000000000000000000000000007bffffffffffffffffffffffffffffffffffffffffffffffffffffffff1916827bffffffffffffffffffffffffffffffffffffffffffffffffffffffff1916149050919050565b60008073ffffffffffffffffffffffffffffffffffffffff166003600084815260200190815260200160002060009054906101000a900473ffffffffffffffffffffffffffffffffffffffff1673ffffffffffffffffffffffffffffffffffffffff1614159050919050565b600033905090565b816005600083815260200190815260200160002060006101000a81548173ffffffffffffffffffffffffffffffffffffffff021916908373ffffffffffffffffffffffffffffffffffffffff160217905550808273ffffffffffffffffffffffffffffffffffffffff166111da8361081b565b73ffffffffffffffffffffffffffffffffffffffff167f8c5be1e5ebec7d5bd14f71427d1e84f3dd0314c0f7b2291e5b200ac8c7c3b92560405160405180910390a45050565b600081600001549050919050565b6000611239826110f3565b611278576040517f08c379a000000000000000000000000000000000000000000000000000000000815260040161126f90612661565b60405180910390fd5b60006112838361081b565b90508073ffffffffffffffffffffffffffffffffffffffff168473ffffffffffffffffffffffffffffffffffffffff1614806112f257508373ffffffffffffffffffffffffffffffffffffffff166112da84610557565b73ffffffffffffffffffffffffffffffffffffffff16145b8061130357506113028185610efd565b5b91505092915050565b8273ffffffffffffffffffffffffffffffffffffffff1661132c8261081b565b73ffffffffffffffffffffffffffffffffffffffff1614611382576040517f08c379a000000000000000000000000000000000000000000000000000000000815260040161137990612761565b60405180910390fd5b600073ffffffffffffffffffffffffffffffffffffffff168273ffffffffffffffffffffffffffffffffffffffff1614156113f2576040517f08c379a00000000000000000000000000000000000000000000000000000000081526004016113e990612621565b60405180910390fd5b6113fd838383611923565b611408600082611167565b6001600460008573ffffffffffffffffffffffffffffffffffffffff1673ffffffffffffffffffffffffffffffffffffffff1681526020019081526020016000206000828254611458919061294d565b925050819055506001600460008473ffffffffffffffffffffffffffffffffffffffff1673ffffffffffffffffffffffffffffffffffffffff16815260200190815260200160002060008282546114af91906128c6565b92505081905550816003600083815260200190815260200160002060006101000a81548173ffffffffffffffffffffffffffffffffffffffff021916908373ffffffffffffffffffffffffffffffffffffffff160217905550808273ffffffffffffffffffffffffffffffffffffffff168473ffffffffffffffffffffffffffffffffffffffff167fddf252ad1be2c89b69c2b068fc378daa952ba7f163c4a11628f55a4df523b3ef60405160405180910390a4505050565b60008060009054906101000a900473ffffffffffffffffffffffffffffffffffffffff169050816000806101000a81548173ffffffffffffffffffffffffffffffffffffffff021916908373ffffffffffffffffffffffffffffffffffffffff1602179055508173ffffffffffffffffffffffffffffffffffffffff168173ffffffffffffffffffffffffffffffffffffffff167f8be0079c531659141344cd1fd0a4f28419497f9722a3daafe3b4186f6b6457e060405160405180910390a35050565b6001816000016000828254019250508190555050565b61165c828260405180602001604052806000815250611928565b5050565b611669826110f3565b6116a8576040517f08c379a000000000000000000000000000000000000000000000000000000000815260040161169f90612721565b60405180910390fd5b806008600084815260200190815260200160002090805190602001906116cf929190611cfb565b505050565b6116df84848461130c565b6116eb84848484611983565b61172a576040517f08c379a0000000000000000000000000000000000000000000000000000000008152600401611721906125c1565b60405180910390fd5b50505050565b60606009805461173f90612a37565b80601f016020809104026020016040519081016040528092919081815260200182805461176b90612a37565b80156117b85780601f1061178d576101008083540402835291602001916117b8565b820191906000526020600020905b81548152906001019060200180831161179b57829003601f168201915b5050505050905090565b6060600082141561180a576040518060400160405280600181526020017f3000000000000000000000000000000000000000000000000000000000000000815250905061191e565b600082905060005b6000821461183c57808061182590612a9a565b915050600a82611835919061291c565b9150611812565b60008167ffffffffffffffff81111561185857611857612bd0565b5b6040519080825280601f01601f19166020018201604052801561188a5781602001600182028036833780820191505090505b5090505b60008514611917576001826118a3919061294d565b9150600a856118b29190612ae3565b60306118be91906128c6565b60f81b8183815181106118d4576118d3612ba1565b5b60200101907effffffffffffffffffffffffffffffffffffffffffffffffffffffffffffff1916908160001a905350600a85611910919061291c565b945061188e565b8093505050505b919050565b505050565b6119328383611b1a565b61193f6000848484611983565b61197e576040517f08c379a0000000000000000000000000000000000000000000000000000000008152600401611975906125c1565b60405180910390fd5b505050565b60006119a48473ffffffffffffffffffffffffffffffffffffffff16611ce8565b15611b0d578373ffffffffffffffffffffffffffffffffffffffff1663150b7a026119cd61115f565b8786866040518563ffffffff1660e01b81526004016119ef9493929190612538565b602060405180830381600087803b158015611a0957600080fd5b505af1925050508015611a3a57506040513d601f19601f82011682018060405250810190611a3791906120d7565b60015b611abd573d8060008114611a6a576040519150601f19603f3d011682016040523d82523d6000602084013e611a6f565b606091505b50600081511415611ab5576040517f08c379a0000000000000000000000000000000000000000000000000000000008152600401611aac906125c1565b60405180910390fd5b805181602001fd5b63150b7a0260e01b7bffffffffffffffffffffffffffffffffffffffffffffffffffffffff1916817bffffffffffffffffffffffffffffffffffffffffffffffffffffffff191614915050611b12565b600190505b949350505050565b600073ffffffffffffffffffffffffffffffffffffffff168273ffffffffffffffffffffffffffffffffffffffff161415611b8a576040517f08c379a0000000000000000000000000000000000000000000000000000000008152600401611b81906126e1565b60405180910390fd5b611b93816110f3565b15611bd3576040517f08c379a0000000000000000000000000000000000000000000000000000000008152600401611bca90612601565b60405180910390fd5b611bdf60008383611923565b6001600460008473ffffffffffffffffffffffffffffffffffffffff1673ffffffffffffffffffffffffffffffffffffffff1681526020019081526020016000206000828254611c2f91906128c6565b92505081905550816003600083815260200190815260200160002060006101000a81548173ffffffffffffffffffffffffffffffffffffffff021916908373ffffffffffffffffffffffffffffffffffffffff160217905550808273ffffffffffffffffffffffffffffffffffffffff16600073ffffffffffffffffffffffffffffffffffffffff167fddf252ad1be2c89b69c2b068fc378daa952ba7f163c4a11628f55a4df523b3ef60405160405180910390a45050565b600080823b905060008111915050919050565b828054611d0790612a37565b90600052602060002090601f016020900481019282611d295760008555611d70565b82601f10611d4257805160ff1916838001178555611d70565b82800160010185558215611d70579182015b82811115611d6f578251825591602001919060010190611d54565b5b509050611d7d9190611d81565b5090565b5b80821115611d9a576000816000905550600101611d82565b5090565b6000611db1611dac84612821565b6127fc565b905082815260208101848484011115611dcd57611dcc612c04565b5b611dd88482856129f5565b509392505050565b6000611df3611dee84612852565b6127fc565b905082815260208101848484011115611e0f57611e0e612c04565b5b611e1a8482856129f5565b509392505050565b600081359050611e31816130cb565b92915050565b600081359050611e46816130e2565b92915050565b600081359050611e5b816130f9565b92915050565b600081519050611e70816130f9565b92915050565b600082601f830112611e8b57611e8a612bff565b5b8135611e9b848260208601611d9e565b91505092915050565b600082601f830112611eb957611eb8612bff565b5b8135611ec9848260208601611de0565b91505092915050565b600081359050611ee181613110565b92915050565b600060208284031215611efd57611efc612c0e565b5b6000611f0b84828501611e22565b91505092915050565b60008060408385031215611f2b57611f2a612c0e565b5b6000611f3985828601611e22565b9250506020611f4a85828601611e22565b9150509250929050565b600080600060608486031215611f6d57611f6c612c0e565b5b6000611f7b86828701611e22565b9350506020611f8c86828701611e22565b9250506040611f9d86828701611ed2565b9150509250925092565b60008060008060808587031215611fc157611fc0612c0e565b5b6000611fcf87828801611e22565b9450506020611fe087828801611e22565b9350506040611ff187828801611ed2565b925050606085013567ffffffffffffffff81111561201257612011612c09565b5b61201e87828801611e76565b91505092959194509250565b6000806040838503121561204157612040612c0e565b5b600061204f85828601611e22565b925050602061206085828601611e37565b9150509250929050565b6000806040838503121561208157612080612c0e565b5b600061208f85828601611e22565b92505060206120a085828601611ed2565b9150509250929050565b6000602082840312156120c0576120bf612c0e565b5b60006120ce84828501611e4c565b91505092915050565b6000602082840312156120ed576120ec612c0e565b5b60006120fb84828501611e61565b91505092915050565b60006020828403121561211a57612119612c0e565b5b600082013567ffffffffffffffff81111561213857612137612c09565b5b61214484828501611ea4565b91505092915050565b6000806040838503121561216457612163612c0e565b5b600083013567ffffffffffffffff81111561218257612181612c09565b5b61218e85828601611ea4565b925050602061219f85828601611ed2565b9150509250929050565b6000602082840312156121bf576121be612c0e565b5b60006121cd84828501611ed2565b91505092915050565b6121df81612981565b82525050565b6121ee81612993565b82525050565b60006121ff82612883565b6122098185612899565b9350612219818560208601612a04565b61222281612c13565b840191505092915050565b60006122388261288e565b61224281856128aa565b9350612252818560208601612a04565b61225b81612c13565b840191505092915050565b60006122718261288e565b61227b81856128bb565b935061228b818560208601612a04565b80840191505092915050565b60006122a46032836128aa565b91506122af82612c24565b604082019050919050565b60006122c76026836128aa565b91506122d282612c73565b604082019050919050565b60006122ea601c836128aa565b91506122f582612cc2565b602082019050919050565b600061230d6024836128aa565b915061231882612ceb565b604082019050919050565b60006123306019836128aa565b915061233b82612d3a565b602082019050919050565b6000612353602c836128aa565b915061235e82612d63565b604082019050919050565b60006123766038836128aa565b915061238182612db2565b604082019050919050565b6000612399602a836128aa565b91506123a482612e01565b604082019050919050565b60006123bc6029836128aa565b91506123c782612e50565b604082019050919050565b60006123df6020836128aa565b91506123ea82612e9f565b602082019050919050565b6000612402602c836128aa565b915061240d82612ec8565b604082019050919050565b6000612425602c836128aa565b915061243082612f17565b604082019050919050565b60006124486020836128aa565b915061245382612f66565b602082019050919050565b600061246b6029836128aa565b915061247682612f8f565b604082019050919050565b600061248e602f836128aa565b915061249982612fde565b604082019050919050565b60006124b16021836128aa565b91506124bc8261302d565b604082019050919050565b60006124d46031836128aa565b91506124df8261307c565b604082019050919050565b6124f3816129eb565b82525050565b60006125058285612266565b91506125118284612266565b91508190509392505050565b600060208201905061253260008301846121d6565b92915050565b600060808201905061254d60008301876121d6565b61255a60208301866121d6565b61256760408301856124ea565b818103606083015261257981846121f4565b905095945050505050565b600060208201905061259960008301846121e5565b92915050565b600060208201905081810360008301526125b9818461222d565b905092915050565b600060208201905081810360008301526125da81612297565b9050919050565b600060208201905081810360008301526125fa816122ba565b9050919050565b6000602082019050818103600083015261261a816122dd565b9050919050565b6000602082019050818103600083015261263a81612300565b9050919050565b6000602082019050818103600083015261265a81612323565b9050919050565b6000602082019050818103600083015261267a81612346565b9050919050565b6000602082019050818103600083015261269a81612369565b9050919050565b600060208201905081810360008301526126ba8161238c565b9050919050565b600060208201905081810360008301526126da816123af565b9050919050565b600060208201905081810360008301526126fa816123d2565b9050919050565b6000602082019050818103600083015261271a816123f5565b9050919050565b6000602082019050818103600083015261273a81612418565b9050919050565b6000602082019050818103600083015261275a8161243b565b9050919050565b6000602082019050818103600083015261277a8161245e565b9050919050565b6000602082019050818103600083015261279a81612481565b9050919050565b600060208201905081810360008301526127ba816124a4565b9050919050565b600060208201905081810360008301526127da816124c7565b9050919050565b60006020820190506127f660008301846124ea565b92915050565b6000612806612817565b90506128128282612a69565b919050565b6000604051905090565b600067ffffffffffffffff82111561283c5761283b612bd0565b5b61284582612c13565b9050602081019050919050565b600067ffffffffffffffff82111561286d5761286c612bd0565b5b61287682612c13565b9050602081019050919050565b600081519050919050565b600081519050919050565b600082825260208201905092915050565b600082825260208201905092915050565b600081905092915050565b60006128d1826129eb565b91506128dc836129eb565b9250827fffffffffffffffffffffffffffffffffffffffffffffffffffffffffffffffff0382111561291157612910612b14565b5b828201905092915050565b6000612927826129eb565b9150612932836129eb565b92508261294257612941612b43565b5b828204905092915050565b6000612958826129eb565b9150612963836129eb565b92508282101561297657612975612b14565b5b828203905092915050565b600061298c826129cb565b9050919050565b60008115159050919050565b60007fffffffff0000000000000000000000000000000000000000000000000000000082169050919050565b600073ffffffffffffffffffffffffffffffffffffffff82169050919050565b6000819050919050565b82818337600083830152505050565b60005b83811015612a22578082015181840152602081019050612a07565b83811115612a31576000848401525b50505050565b60006002820490506001821680612a4f57607f821691505b60208210811415612a6357612a62612b72565b5b50919050565b612a7282612c13565b810181811067ffffffffffffffff82111715612a9157612a90612bd0565b5b80604052505050565b6000612aa5826129eb565b91507fffffffffffffffffffffffffffffffffffffffffffffffffffffffffffffffff821415612ad857612ad7612b14565b5b600182019050919050565b6000612aee826129eb565b9150612af9836129eb565b925082612b0957612b08612b43565b5b828206905092915050565b7f4e487b7100000000000000000000000000000000000000000000000000000000600052601160045260246000fd5b7f4e487b7100000000000000000000000000000000000000000000000000000000600052601260045260246000fd5b7f4e487b7100000000000000000000000000000000000000000000000000000000600052602260045260246000fd5b7f4e487b7100000000000000000000000000000000000000000000000000000000600052603260045260246000fd5b7f4e487b7100000000000000000000000000000000000000000000000000000000600052604160045260246000fd5b600080fd5b600080fd5b600080fd5b600080fd5b6000601f19601f8301169050919050565b7f4552433732313a207472616e7366657220746f206e6f6e20455243373231526560008201527f63656976657220696d706c656d656e7465720000000000000000000000000000602082015250565b7f4f776e61626c653a206e6577206f776e657220697320746865207a65726f206160008201527f6464726573730000000000000000000000000000000000000000000000000000602082015250565b7f4552433732313a20746f6b656e20616c7265616479206d696e74656400000000600082015250565b7f4552433732313a207472616e7366657220746f20746865207a65726f2061646460008201527f7265737300000000000000000000000000000000000000000000000000000000602082015250565b7f4552433732313a20617070726f766520746f2063616c6c657200000000000000600082015250565b7f4552433732313a206f70657261746f7220717565727920666f72206e6f6e657860008201527f697374656e7420746f6b656e0000000000000000000000000000000000000000602082015250565b7f4552433732313a20617070726f76652063616c6c6572206973206e6f74206f7760008201527f6e6572206e6f7220617070726f76656420666f7220616c6c0000000000000000602082015250565b7f4552433732313a2062616c616e636520717565727920666f7220746865207a6560008201527f726f206164647265737300000000000000000000000000000000000000000000602082015250565b7f4552433732313a206f776e657220717565727920666f72206e6f6e657869737460008201527f656e7420746f6b656e0000000000000000000000000000000000000000000000602082015250565b7f4552433732313a206d696e7420746f20746865207a65726f2061646472657373600082015250565b7f4552433732313a20617070726f76656420717565727920666f72206e6f6e657860008201527f697374656e7420746f6b656e0000000000000000000000000000000000000000602082015250565b7f4552433732314d657461646174613a2055524920736574206f66206e6f6e657860008201527f697374656e7420746f6b656e0000000000000000000000000000000000000000602082015250565b7f4f776e61626c653a2063616c6c6572206973206e6f7420746865206f776e6572600082015250565b7f4552433732313a207472616e73666572206f6620746f6b656e2074686174206960008201527f73206e6f74206f776e0000000000000000000000000000000000000000000000602082015250565b7f4552433732314d657461646174613a2055524920717565727920666f72206e6f60008201527f6e6578697374656e7420746f6b656e0000000000000000000000000000000000602082015250565b7f4552433732313a20617070726f76616c20746f2063757272656e74206f776e6560008201527f7200000000000000000000000000000000000000000000000000000000000000602082015250565b7f4552433732313a207472616e736665722063616c6c6572206973206e6f74206f60008201527f776e6572206e6f7220617070726f766564000000000000000000000000000000602082015250565b6130d481612981565b81146130df57600080fd5b50565b6130eb81612993565b81146130f657600080fd5b50565b6131028161299f565b811461310d57600080fd5b50565b613119816129eb565b811461312457600080fd5b5056fea2646970667358221220641c55a6fc091289d35af9538c23cb4bd5578a18af356b1a40aa00407db56b4164736f6c63430008070033",
  "immutableReferences": {},
  "source": "// SPDX-License-Identifier: MIT\npragma solidity >=0.4.22 <0.9.0;\n\nimport \"@openzeppelin/contracts/token/ERC721/ERC721.sol\";\nimport \"@openzeppelin/contracts/utils/Counters.sol\";\nimport \"@openzeppelin/contracts/access/Ownable.sol\";\n\ncontract ArtCollectible is Ownable, ERC721 {\n    using Counters for Counters.Counter;\n    Counters.Counter private _tokenIds;\n    using Strings for uint256;\n    // Optional mapping for token URIs\n    mapping(uint256 => string) private _tokenURIs;\n\n    // Base URI\n    string private _baseURIextended;\n\n    constructor() public ERC721(\"ArtCollectible\", \"ARTC\") {}\n\n    // https://forum.openzeppelin.com/t/function-settokenuri-in-erc721-is-gone-with-pragma-0-8-0/5978/3\n    function setBaseURI(string memory baseURI_) external onlyOwner {\n        _baseURIextended = baseURI_;\n    }\n\n    function _setTokenURI(uint256 tokenId, string memory _tokenURI)\n        internal\n        virtual\n    {\n        require(\n            _exists(tokenId),\n            \"ERC721Metadata: URI set of nonexistent token\"\n        );\n        _tokenURIs[tokenId] = _tokenURI;\n    }\n\n    function _baseURI() internal view virtual override returns (string memory) {\n        return _baseURIextended;\n    }\n\n    function tokenURI(uint256 tokenId)\n        public\n        view\n        virtual\n        override\n        returns (string memory)\n    {\n        require(\n            _exists(tokenId),\n            \"ERC721Metadata: URI query for nonexistent token\"\n        );\n\n        string memory _tokenURI = _tokenURIs[tokenId];\n        string memory base = _baseURI();\n\n        // If there is no base URI, return the token URI.\n        if (bytes(base).length == 0) {\n            return _tokenURI;\n        }\n        // If both are set, concatenate the baseURI and tokenURI (via abi.encodePacked).\n        if (bytes(_tokenURI).length > 0) {\n            return string(abi.encodePacked(base, _tokenURI));\n        }\n        // If there is a baseURI but no tokenURI, concatenate the tokenID to the baseURI.\n        return string(abi.encodePacked(base, tokenId.toString()));\n    }\n\n    function claimItem(string memory tokenURI) public returns (uint256) {\n        _tokenIds.increment();\n        uint256 newItemId = _tokenIds.current();\n        _safeMint(msg.sender, newItemId);\n        _setTokenURI(newItemId, tokenURI);\n        return newItemId;\n    }\n\n    function totalSupply() public view returns (uint256) {\n        return _tokenIds.current();\n    }\n    function updateTokenUri(string memory tokenURI,uint256 tokenId)  public onlyOwner {\n        \n        _tokenURIs[tokenId] = tokenURI;\n    }\n    \n}\n",
  "sourcePath": "/home/akhilesh/Desktop/nft-demo/contracts/ArtCollectible.sol",
  "compiler": {
    "name": "solc",
    "version": "0.8.7+commit.e28d00a7.Emscripten.clang"
  },
  "schemaVersion": "3.4.3",
  "updatedAt": "2022-02-03T02:58:48.246Z",
  "networkType": "ethereum",
  "devdoc": {
    "kind": "dev",
    "methods": {
      "approve(address,uint256)": {
        "details": "See {IERC721-approve}."
      },
      "balanceOf(address)": {
        "details": "See {IERC721-balanceOf}."
      },
      "getApproved(uint256)": {
        "details": "See {IERC721-getApproved}."
      },
      "isApprovedForAll(address,address)": {
        "details": "See {IERC721-isApprovedForAll}."
      },
      "name()": {
        "details": "See {IERC721Metadata-name}."
      },
      "owner()": {
        "details": "Returns the address of the current owner."
      },
      "ownerOf(uint256)": {
        "details": "See {IERC721-ownerOf}."
      },
      "renounceOwnership()": {
        "details": "Leaves the contract without owner. It will not be possible to call `onlyOwner` functions anymore. Can only be called by the current owner. NOTE: Renouncing ownership will leave the contract without an owner, thereby removing any functionality that is only available to the owner."
      },
      "safeTransferFrom(address,address,uint256)": {
        "details": "See {IERC721-safeTransferFrom}."
      },
      "safeTransferFrom(address,address,uint256,bytes)": {
        "details": "See {IERC721-safeTransferFrom}."
      },
      "setApprovalForAll(address,bool)": {
        "details": "See {IERC721-setApprovalForAll}."
      },
      "supportsInterface(bytes4)": {
        "details": "See {IERC165-supportsInterface}."
      },
      "symbol()": {
        "details": "See {IERC721Metadata-symbol}."
      },
      "tokenURI(uint256)": {
        "details": "See {IERC721Metadata-tokenURI}."
      },
      "transferFrom(address,address,uint256)": {
        "details": "See {IERC721-transferFrom}."
      },
      "transferOwnership(address)": {
        "details": "Transfers ownership of the contract to a new account (`newOwner`). Can only be called by the current owner."
      }
    },
    "version": 1
  },
  "userdoc": {
    "kind": "user",
    "methods": {},
    "version": 1
  }
}